{
  "_format": "hh-sol-artifact-1",
  "contractName": "Crowdfunding",
  "sourceName": "contracts/Crowdfunding.sol",
  "abi": [
    {
      "anonymous": false,
      "inputs": [
        {
          "indexed": false,
          "internalType": "address",
          "name": "creator",
          "type": "address"
        },
        {
          "indexed": false,
          "internalType": "string",
          "name": "title",
          "type": "string"
        },
        {
          "indexed": false,
          "internalType": "uint256",
          "name": "goal",
          "type": "uint256"
        }
      ],
      "name": "Register",
      "type": "event"
    },
    {
      "inputs": [],
      "name": "getRegisteredProjects",
      "outputs": [
        {
          "internalType": "contract Project[]",
          "name": "",
          "type": "address[]"
        }
      ],
      "stateMutability": "view",
      "type": "function"
    },
    {
      "inputs": [
        {
          "internalType": "string",
          "name": "title",
          "type": "string"
        },
        {
          "internalType": "uint256",
          "name": "goal",
          "type": "uint256"
        }
      ],
      "name": "registerProject",
      "outputs": [],
      "stateMutability": "nonpayable",
      "type": "function"
    },
    {
      "inputs": [
        {
          "internalType": "uint256",
          "name": "",
          "type": "uint256"
        }
      ],
      "name": "registeredProjects",
      "outputs": [
        {
          "internalType": "contract Project",
          "name": "",
          "type": "address"
        }
      ],
      "stateMutability": "view",
      "type": "function"
    }
  ],
  "bytecode": "0x608060405234801561001057600080fd5b50612c6c806100206000396000f3fe60806040523480156200001157600080fd5b5060043610620000465760003560e01c80631410b909146200004b578063246f5eb7146200006b578063fedfccaa146200008d575b600080fd5b62000069600480360381019062000063919062000310565b620000c3565b005b62000075620001a9565b604051620000849190620004e3565b60405180910390f35b620000ab6004803603810190620000a591906200036a565b62000239565b604051620000ba919062000507565b60405180910390f35b6000338383604051620000d69062000279565b620000e4939291906200049f565b604051809103906000f08015801562000101573d6000803e3d6000fd5b5090506000819080600181540180825580915050600190039060005260206000200160009091909190916101000a81548173ffffffffffffffffffffffffffffffffffffffff021916908373ffffffffffffffffffffffffffffffffffffffff1602179055507fd741a63ddb805bd1ed3216c3a05c67b4e900126b903e69169fe3940657d280c73384846040516200019c939291906200049f565b60405180910390a1505050565b606060008054806020026020016040519081016040528092919081815260200182805480156200022f57602002820191906000526020600020905b8160009054906101000a900473ffffffffffffffffffffffffffffffffffffffff1673ffffffffffffffffffffffffffffffffffffffff1681526020019060010190808311620001e4575b5050505050905090565b600081815481106200024a57600080fd5b906000526020600020016000915054906101000a900473ffffffffffffffffffffffffffffffffffffffff1681565b61255180620006e683390190565b60006200029e620002988462000558565b62000524565b905082815260208101848484011115620002b757600080fd5b620002c484828562000646565b509392505050565b600082601f830112620002de57600080fd5b8135620002f084826020860162000287565b91505092915050565b6000813590506200030a81620006cb565b92915050565b600080604083850312156200032457600080fd5b600083013567ffffffffffffffff8111156200033f57600080fd5b6200034d85828601620002cc565b92505060206200036085828601620002f9565b9150509250929050565b6000602082840312156200037d57600080fd5b60006200038d84828501620002f9565b91505092915050565b6000620003a483836200042b565b60208301905092915050565b620003bb81620005e0565b82525050565b6000620003ce826200059b565b620003da8185620005be565b9350620003e7836200058b565b8060005b838110156200041e57815162000402888262000396565b97506200040f83620005b1565b925050600181019050620003eb565b5085935050505092915050565b62000436816200061e565b82525050565b62000447816200061e565b82525050565b60006200045a82620005a6565b620004668185620005cf565b93506200047881856020860162000655565b6200048381620006ba565b840191505092915050565b620004998162000614565b82525050565b6000606082019050620004b66000830186620003b0565b8181036020830152620004ca81856200044d565b9050620004db60408301846200048e565b949350505050565b60006020820190508181036000830152620004ff8184620003c1565b905092915050565b60006020820190506200051e60008301846200043c565b92915050565b6000604051905081810181811067ffffffffffffffff821117156200054e576200054d6200068b565b5b8060405250919050565b600067ffffffffffffffff8211156200057657620005756200068b565b5b601f19601f8301169050602081019050919050565b6000819050602082019050919050565b600081519050919050565b600081519050919050565b6000602082019050919050565b600082825260208201905092915050565b600082825260208201905092915050565b6000620005ed82620005f4565b9050919050565b600073ffffffffffffffffffffffffffffffffffffffff82169050919050565b6000819050919050565b60006200062b8262000632565b9050919050565b60006200063f82620005f4565b9050919050565b82818337600083830152505050565b60005b838110156200067557808201518184015260208101905062000658565b8381111562000685576000848401525b50505050565b7f4e487b7100000000000000000000000000000000000000000000000000000000600052604160045260246000fd5b6000601f19601f8301169050919050565b620006d68162000614565b8114620006e257600080fd5b5056fe6080604052662386f26fc100006005553480156200001c57600080fd5b506040516200255138038062002551833981810160405281019062000042919062000228565b82600060026101000a81548173ffffffffffffffffffffffffffffffffffffffff021916908373ffffffffffffffffffffffffffffffffffffffff16021790555081600190805190602001906200009b929190620000d8565b50670de0b6b3a764000081620000b291906200035b565b60028190555062278d0042620000c99190620002fe565b60038190555050505062000527565b828054620000e69062000430565b90600052602060002090601f0160209004810192826200010a576000855562000156565b82601f106200012557805160ff191683800117855562000156565b8280016001018555821562000156579182015b828111156200015557825182559160200191906001019062000138565b5b50905062000165919062000169565b5090565b5b80821115620001845760008160009055506001016200016a565b5090565b60006200019f6200019984620002cb565b62000297565b905082815260208101848484011115620001b857600080fd5b620001c5848285620003fa565b509392505050565b600081519050620001de81620004f3565b92915050565b600082601f830112620001f657600080fd5b81516200020884826020860162000188565b91505092915050565b60008151905062000222816200050d565b92915050565b6000806000606084860312156200023e57600080fd5b60006200024e86828701620001cd565b935050602084015167ffffffffffffffff8111156200026c57600080fd5b6200027a86828701620001e4565b92505060406200028d8682870162000211565b9150509250925092565b6000604051905081810181811067ffffffffffffffff82111715620002c157620002c0620004c4565b5b8060405250919050565b600067ffffffffffffffff821115620002e957620002e8620004c4565b5b601f19601f8301169050602081019050919050565b60006200030b82620003f0565b91506200031883620003f0565b9250827fffffffffffffffffffffffffffffffffffffffffffffffffffffffffffffffff0382111562000350576200034f62000466565b5b828201905092915050565b60006200036882620003f0565b91506200037583620003f0565b9250817fffffffffffffffffffffffffffffffffffffffffffffffffffffffffffffffff0483118215151615620003b157620003b062000466565b5b828202905092915050565b6000620003c982620003d0565b9050919050565b600073ffffffffffffffffffffffffffffffffffffffff82169050919050565b6000819050919050565b60005b838110156200041a578082015181840152602081019050620003fd565b838111156200042a576000848401525b50505050565b600060028204905060018216806200044957607f821691505b6020821081141562000460576200045f62000495565b5b50919050565b7f4e487b7100000000000000000000000000000000000000000000000000000000600052601160045260246000fd5b7f4e487b7100000000000000000000000000000000000000000000000000000000600052602260045260246000fd5b7f4e487b7100000000000000000000000000000000000000000000000000000000600052604160045260246000fd5b620004fe81620003bc565b81146200050a57600080fd5b50565b6200051881620003f0565b81146200052457600080fd5b50565b61201a80620005376000396000f3fe6080604052600436106101355760003560e01c80634f062c5a116100ab578063a22cb4651161006f578063a22cb46514610401578063b88d4fde1461042a578063d7bb99ba14610446578063e985e9c514610450578063ea8a1af01461048d578063eb08ab28146104a457610135565b80634f062c5a14610308578063590e1ae3146103455780636352211e1461035c57806370a0823114610399578063937e09b1146103d657610135565b806323b872dd116100fd57806323b872dd1461022657806329dcb0cf146102425780632e1a7d4d1461026d578063401938831461029657806342842e0e146102c15780634a79d50c146102dd57610135565b806302d05d3f1461013a578063081812fc14610165578063095ea7b3146101a2578063200d2ed2146101be57806321eff7fc146101e9575b600080fd5b34801561014657600080fd5b5061014f6104cf565b60405161015c91906119d0565b60405180910390f35b34801561017157600080fd5b5061018c60048036038101906101879190611624565b6104f5565b60405161019991906119b5565b60405180910390f35b6101bc60048036038101906101b791906115e8565b6104fc565b005b3480156101ca57600080fd5b506101d3610501565b6040516101e09190611a3d565b60405180910390f35b3480156101f557600080fd5b50610210600480360381019061020b919061147d565b610512565b60405161021d9190611baa565b60405180910390f35b610240600480360381019061023b91906114e2565b61055b565b005b34801561024e57600080fd5b50610257610560565b6040516102649190611baa565b60405180910390f35b34801561027957600080fd5b50610294600480360381019061028f9190611624565b610566565b005b3480156102a257600080fd5b506102ab6107a6565b6040516102b89190611baa565b60405180910390f35b6102db60048036038101906102d691906114e2565b6107ac565b005b3480156102e957600080fd5b506102f26107b1565b6040516102ff9190611a58565b60405180910390f35b34801561031457600080fd5b5061032f600480360381019061032a9190611624565b61083f565b60405161033c9190611bc5565b60405180910390f35b34801561035157600080fd5b5061035a61085a565b005b34801561036857600080fd5b50610383600480360381019061037e9190611624565b610bbf565b60405161039091906119b5565b60405180910390f35b3480156103a557600080fd5b506103c060048036038101906103bb919061147d565b610bfc565b6040516103cd9190611baa565b60405180910390f35b3480156103e257600080fd5b506103eb610c45565b6040516103f89190611baa565b60405180910390f35b34801561040d57600080fd5b50610428600480360381019061042391906115ac565b610c4b565b005b610444600480360381019061043f9190611531565b610c50565b005b61044e610c55565b005b34801561045c57600080fd5b50610477600480360381019061047291906114a6565b610ff2565b6040516104849190611a22565b60405180910390f35b34801561049957600080fd5b506104a2610ff9565b005b3480156104b057600080fd5b506104b96111d7565b6040516104c69190611baa565b60405180910390f35b600060029054906101000a900473ffffffffffffffffffffffffffffffffffffffff1681565b6000806000fd5b600080fd5b60008054906101000a900460ff1681565b6000600660008373ffffffffffffffffffffffffffffffffffffffff1673ffffffffffffffffffffffffffffffffffffffff168152602001908152602001600020549050919050565b600080fd5b60035481565b600060029054906101000a900473ffffffffffffffffffffffffffffffffffffffff1673ffffffffffffffffffffffffffffffffffffffff163373ffffffffffffffffffffffffffffffffffffffff16146105f6576040517f08c379a00000000000000000000000000000000000000000000000000000000081526004016105ed90611b0a565b60405180910390fd5b6001806002811115610631577f4e487b7100000000000000000000000000000000000000000000000000000000600052602160045260246000fd5b60008054906101000a900460ff166002811115610677577f4e487b7100000000000000000000000000000000000000000000000000000000600052602160045260246000fd5b146106b7576040517f08c379a00000000000000000000000000000000000000000000000000000000081526004016106ae90611b8a565b60405180910390fd5b6000826064476106c79190611cd3565b6106d19190611d04565b905060008060029054906101000a900473ffffffffffffffffffffffffffffffffffffffff1673ffffffffffffffffffffffffffffffffffffffff168260405161071a906119a0565b60006040518083038185875af1925050503d8060008114610757576040519150601f19603f3d011682016040523d82523d6000602084013e61075c565b606091505b50509050806107a0576040517f08c379a000000000000000000000000000000000000000000000000000000000815260040161079790611aea565b60405180910390fd5b50505050565b60025481565b600080fd5b600180546107be90611e2c565b80601f01602080910402602001604051908101604052809291908181526020018280546107ea90611e2c565b80156108375780601f1061080c57610100808354040283529160200191610837565b820191906000526020600020905b81548152906001019060200180831161081a57829003601f168201915b505050505081565b60008060048361084f9190611e5e565b905080915050919050565b600060019054906101000a900460ff16156108aa576040517f08c379a00000000000000000000000000000000000000000000000000000000081526004016108a190611b4a565b60405180910390fd5b6001600060016101000a81548160ff02191690831515021790555060035442101580156108d8575060025447105b1561092e5760026000806101000a81548160ff02191690836002811115610928577f4e487b7100000000000000000000000000000000000000000000000000000000600052602160045260246000fd5b02179055505b6002806002811115610969577f4e487b7100000000000000000000000000000000000000000000000000000000600052602160045260246000fd5b60008054906101000a900460ff1660028111156109af577f4e487b7100000000000000000000000000000000000000000000000000000000600052602160045260246000fd5b146109ef576040517f08c379a00000000000000000000000000000000000000000000000000000000081526004016109e690611b8a565b60405180910390fd5b6000600660003373ffffffffffffffffffffffffffffffffffffffff1673ffffffffffffffffffffffffffffffffffffffff1681526020019081526020016000205411610a71576040517f08c379a0000000000000000000000000000000000000000000000000000000008152600401610a6890611b2a565b60405180910390fd5b60003373ffffffffffffffffffffffffffffffffffffffff16600660003373ffffffffffffffffffffffffffffffffffffffff1673ffffffffffffffffffffffffffffffffffffffff16815260200190815260200160002054604051610ad6906119a0565b60006040518083038185875af1925050503d8060008114610b13576040519150601f19603f3d011682016040523d82523d6000602084013e610b18565b606091505b5050905080610b5c576040517f08c379a0000000000000000000000000000000000000000000000000000000008152600401610b5390611b6a565b60405180910390fd5b6000600660003373ffffffffffffffffffffffffffffffffffffffff1673ffffffffffffffffffffffffffffffffffffffff16815260200190815260200160002081905550505060008060016101000a81548160ff021916908315150217905550565b60006007600083815260200190815260200160002060009054906101000a900473ffffffffffffffffffffffffffffffffffffffff169050919050565b6000600860008373ffffffffffffffffffffffffffffffffffffffff1673ffffffffffffffffffffffffffffffffffffffff168152602001908152602001600020549050919050565b60055481565b600080fd5b600080fd5b6003544210158015610c68575060025447105b15610cbe5760026000806101000a81548160ff02191690836002811115610cb8577f4e487b7100000000000000000000000000000000000000000000000000000000600052602160045260246000fd5b02179055505b6000806002811115610cf9577f4e487b7100000000000000000000000000000000000000000000000000000000600052602160045260246000fd5b60008054906101000a900460ff166002811115610d3f577f4e487b7100000000000000000000000000000000000000000000000000000000600052602160045260246000fd5b14610d7f576040517f08c379a0000000000000000000000000000000000000000000000000000000008152600401610d7690611b8a565b60405180910390fd5b600554341015610dc4576040517f08c379a0000000000000000000000000000000000000000000000000000000008152600401610dbb90611aaa565b60405180910390fd5b670de0b6b3a76400003410158015610e225750670de0b6b3a7640000600660003373ffffffffffffffffffffffffffffffffffffffff1673ffffffffffffffffffffffffffffffffffffffff16815260200190815260200160002054105b15610e3757610e326001336111dd565b610f05565b6703782dace9d900003410158015610e9557506703782dace9d90000600660003373ffffffffffffffffffffffffffffffffffffffff1673ffffffffffffffffffffffffffffffffffffffff16815260200190815260200160002054105b15610eaa57610ea56002336111dd565b610f04565b6000600660003373ffffffffffffffffffffffffffffffffffffffff1673ffffffffffffffffffffffffffffffffffffffff168152602001908152602001600020541415610f0257610efd6003336111dd565b610f03565b5b5b5b34600660003373ffffffffffffffffffffffffffffffffffffffff1673ffffffffffffffffffffffffffffffffffffffff1681526020019081526020016000206000828254610f549190611c7d565b925050819055506002544710610fef5760016000806101000a81548160ff02191690836002811115610faf577f4e487b7100000000000000000000000000000000000000000000000000000000600052602160045260246000fd5b02179055507f52515b9d2bdf95791ce080db9c6106fc2cd6aa00cc7eebcefd9d0c05379b4105600130604051610fe6929190611a7a565b60405180910390a15b50565b6000806000fd5b600060029054906101000a900473ffffffffffffffffffffffffffffffffffffffff1673ffffffffffffffffffffffffffffffffffffffff163373ffffffffffffffffffffffffffffffffffffffff1614611089576040517f08c379a000000000000000000000000000000000000000000000000000000000815260040161108090611b0a565b60405180910390fd5b60008060028111156110c4577f4e487b7100000000000000000000000000000000000000000000000000000000600052602160045260246000fd5b60008054906101000a900460ff16600281111561110a577f4e487b7100000000000000000000000000000000000000000000000000000000600052602160045260246000fd5b1461114a576040517f08c379a000000000000000000000000000000000000000000000000000000000815260040161114190611b8a565b60405180910390fd5b60026000806101000a81548160ff02191690836002811115611195577f4e487b7100000000000000000000000000000000000000000000000000000000600052602160045260246000fd5b02179055507fe34d4cb67cc60d1b99027998c8a7e52ae5690a3f9fd1219d8c586b6d61b4770d6001306040516111cc929190611a7a565b60405180910390a150565b60045481565b600073ffffffffffffffffffffffffffffffffffffffff168173ffffffffffffffffffffffffffffffffffffffff16141561121757600080fd5b60008260ff166002600454901b61122e9190611c7d565b90506001600460008282546112439190611c7d565b92505081905550600073ffffffffffffffffffffffffffffffffffffffff166007600083815260200190815260200160002060009054906101000a900473ffffffffffffffffffffffffffffffffffffffff1673ffffffffffffffffffffffffffffffffffffffff16146112ec576040517f08c379a00000000000000000000000000000000000000000000000000000000081526004016112e390611aca565b60405180910390fd5b816007600083815260200190815260200160002060006101000a81548173ffffffffffffffffffffffffffffffffffffffff021916908373ffffffffffffffffffffffffffffffffffffffff1602179055506001600860008473ffffffffffffffffffffffffffffffffffffffff1673ffffffffffffffffffffffffffffffffffffffff168152602001908152602001600020600082825461138e9190611c7d565b925050819055507fddf252ad1be2c89b69c2b068fc378daa952ba7f163c4a11628f55a4df523b3ef600083836040516113c9939291906119eb565b60405180910390a1505050565b60006113e96113e484611c11565b611be0565b90508281526020810184848401111561140157600080fd5b61140c848285611dea565b509392505050565b60008135905061142381611f9f565b92915050565b60008135905061143881611fb6565b92915050565b600082601f83011261144f57600080fd5b813561145f8482602086016113d6565b91505092915050565b60008135905061147781611fcd565b92915050565b60006020828403121561148f57600080fd5b600061149d84828501611414565b91505092915050565b600080604083850312156114b957600080fd5b60006114c785828601611414565b92505060206114d885828601611414565b9150509250929050565b6000806000606084860312156114f757600080fd5b600061150586828701611414565b935050602061151686828701611414565b925050604061152786828701611468565b9150509250925092565b6000806000806080858703121561154757600080fd5b600061155587828801611414565b945050602061156687828801611414565b935050604061157787828801611468565b925050606085013567ffffffffffffffff81111561159457600080fd5b6115a08782880161143e565b91505092959194509250565b600080604083850312156115bf57600080fd5b60006115cd85828601611414565b92505060206115de85828601611429565b9150509250929050565b600080604083850312156115fb57600080fd5b600061160985828601611414565b925050602061161a85828601611468565b9150509250929050565b60006020828403121561163657600080fd5b600061164484828501611468565b91505092915050565b61165681611d70565b82525050565b61166581611d5e565b82525050565b61167481611d82565b82525050565b61168381611dd8565b82525050565b600061169482611c56565b61169e8185611c6c565b93506116ae818560208601611df9565b6116b781611f7a565b840191505092915050565b600081546116cf81611e2c565b6116d98186611c6c565b945060018216600081146116f4576001811461170657611739565b60ff1983168652602086019350611739565b61170f85611c41565b60005b8381101561173157815481890152600182019150602081019050611712565b808801955050505b50505092915050565b600061174f602283611c6c565b91507f4e65656420746f206d616b652061206c617267657220636f6e7472696275746960008301527f6f6e0000000000000000000000000000000000000000000000000000000000006020830152604082019050919050565b60006117b5602083611c6c565b91507f494420616c7265616479206f776e656420627920736f6d656f6e6520656c73656000830152602082019050919050565b60006117f5601483611c6c565b91507f4661696c656420746f2073656e642045746865720000000000000000000000006000830152602082019050919050565b6000611835600b83611c6c565b91507f4e6f742063726561746f720000000000000000000000000000000000000000006000830152602082019050919050565b6000611875601283611c6c565b91507f646964206e6f7420636f6e7472696275746500000000000000000000000000006000830152602082019050919050565b60006118b5600e83611c6c565b91507f4e6f2072652d656e7472616e63790000000000000000000000000000000000006000830152602082019050919050565b60006118f5600083611c61565b9150600082019050919050565b600061190f601583611c6c565b91507f4661696c656420746f2073656e6420726566756e6400000000000000000000006000830152602082019050919050565b600061194f601e83611c6c565b91507f43616e6e6f742062652063616c6c656420617420746869732074696d652e00006000830152602082019050919050565b61198b81611dc1565b82525050565b61199a81611dcb565b82525050565b60006119ab826118e8565b9150819050919050565b60006020820190506119ca600083018461165c565b92915050565b60006020820190506119e5600083018461164d565b92915050565b6000606082019050611a00600083018661165c565b611a0d602083018561165c565b611a1a6040830184611982565b949350505050565b6000602082019050611a37600083018461166b565b92915050565b6000602082019050611a52600083018461167a565b92915050565b60006020820190508181036000830152611a728184611689565b905092915050565b60006040820190508181036000830152611a9481856116c2565b9050611aa3602083018461165c565b9392505050565b60006020820190508181036000830152611ac381611742565b9050919050565b60006020820190508181036000830152611ae3816117a8565b9050919050565b60006020820190508181036000830152611b03816117e8565b9050919050565b60006020820190508181036000830152611b2381611828565b9050919050565b60006020820190508181036000830152611b4381611868565b9050919050565b60006020820190508181036000830152611b63816118a8565b9050919050565b60006020820190508181036000830152611b8381611902565b9050919050565b60006020820190508181036000830152611ba381611942565b9050919050565b6000602082019050611bbf6000830184611982565b92915050565b6000602082019050611bda6000830184611991565b92915050565b6000604051905081810181811067ffffffffffffffff82111715611c0757611c06611f4b565b5b8060405250919050565b600067ffffffffffffffff821115611c2c57611c2b611f4b565b5b601f19601f8301169050602081019050919050565b60008190508160005260206000209050919050565b600081519050919050565b600081905092915050565b600082825260208201905092915050565b6000611c8882611dc1565b9150611c9383611dc1565b9250827fffffffffffffffffffffffffffffffffffffffffffffffffffffffffffffffff03821115611cc857611cc7611e8f565b5b828201905092915050565b6000611cde82611dc1565b9150611ce983611dc1565b925082611cf957611cf8611ebe565b5b828204905092915050565b6000611d0f82611dc1565b9150611d1a83611dc1565b9250817fffffffffffffffffffffffffffffffffffffffffffffffffffffffffffffffff0483118215151615611d5357611d52611e8f565b5b828202905092915050565b6000611d6982611da1565b9050919050565b6000611d7b82611da1565b9050919050565b60008115159050919050565b6000819050611d9c82611f8b565b919050565b600073ffffffffffffffffffffffffffffffffffffffff82169050919050565b6000819050919050565b600060ff82169050919050565b6000611de382611d8e565b9050919050565b82818337600083830152505050565b60005b83811015611e17578082015181840152602081019050611dfc565b83811115611e26576000848401525b50505050565b60006002820490506001821680611e4457607f821691505b60208210811415611e5857611e57611f1c565b5b50919050565b6000611e6982611dcb565b9150611e7483611dcb565b925082611e8457611e83611ebe565b5b828206905092915050565b7f4e487b7100000000000000000000000000000000000000000000000000000000600052601160045260246000fd5b7f4e487b7100000000000000000000000000000000000000000000000000000000600052601260045260246000fd5b7f4e487b7100000000000000000000000000000000000000000000000000000000600052602160045260246000fd5b7f4e487b7100000000000000000000000000000000000000000000000000000000600052602260045260246000fd5b7f4e487b7100000000000000000000000000000000000000000000000000000000600052604160045260246000fd5b6000601f19601f8301169050919050565b60038110611f9c57611f9b611eed565b5b50565b611fa881611d5e565b8114611fb357600080fd5b50565b611fbf81611d82565b8114611fca57600080fd5b50565b611fd681611dc1565b8114611fe157600080fd5b5056fea2646970667358221220f9b3db573f503d98b9855b1b7a7ca4b76a8a797de3812a4a4f360281e98f6ef564736f6c63430008000033a2646970667358221220087cb163f404dba9f07df4f8c98a5085bd687bb29e0441331a5c2c56f7d685ed64736f6c63430008000033",
  "linkReferences": {},
  "deployedLinkReferences": {}
}