{
  "_format": "hh-sol-artifact-1",
  "contractName": "Project",
  "sourceName": "contracts/Crowdfunding.sol",
  "abi": [
    {
      "inputs": [
        {
          "internalType": "address",
          "name": "_creator",
          "type": "address"
        },
        {
          "internalType": "string",
          "name": "_title",
          "type": "string"
        },
        {
          "internalType": "uint256",
          "name": "_goal",
          "type": "uint256"
        }
      ],
      "stateMutability": "nonpayable",
      "type": "constructor"
    },
    {
      "anonymous": false,
      "inputs": [
        {
          "indexed": false,
          "internalType": "string",
          "name": "title",
          "type": "string"
        },
        {
          "indexed": false,
          "internalType": "address",
          "name": "projectAddress",
          "type": "address"
        }
      ],
      "name": "Cancel",
      "type": "event"
    },
    {
      "anonymous": false,
      "inputs": [
        {
          "indexed": false,
          "internalType": "string",
          "name": "title",
          "type": "string"
        },
        {
          "indexed": false,
          "internalType": "address",
          "name": "projectAddress",
          "type": "address"
        }
      ],
      "name": "Success",
      "type": "event"
    },
    {
      "anonymous": false,
      "inputs": [
        {
          "indexed": false,
          "internalType": "address",
          "name": "from",
          "type": "address"
        },
        {
          "indexed": false,
          "internalType": "address",
          "name": "to",
          "type": "address"
        },
        {
          "indexed": false,
          "internalType": "uint256",
          "name": "tokenId",
          "type": "uint256"
        }
      ],
      "name": "Transfer",
      "type": "event"
    },
    {
      "inputs": [
        {
          "internalType": "address",
          "name": "_approved",
          "type": "address"
        },
        {
          "internalType": "uint256",
          "name": "_tokenId",
          "type": "uint256"
        }
      ],
      "name": "approve",
      "outputs": [],
      "stateMutability": "payable",
      "type": "function"
    },
    {
      "inputs": [
        {
          "internalType": "address",
          "name": "_addr",
          "type": "address"
        }
      ],
      "name": "balanceOf",
      "outputs": [
        {
          "internalType": "uint256",
          "name": "",
          "type": "uint256"
        }
      ],
      "stateMutability": "view",
      "type": "function"
    },
    {
      "inputs": [],
      "name": "cancel",
      "outputs": [],
      "stateMutability": "nonpayable",
      "type": "function"
    },
    {
      "inputs": [],
      "name": "contribute",
      "outputs": [],
      "stateMutability": "payable",
      "type": "function"
    },
    {
      "inputs": [],
      "name": "creator",
      "outputs": [
        {
          "internalType": "address payable",
          "name": "",
          "type": "address"
        }
      ],
      "stateMutability": "view",
      "type": "function"
    },
    {
      "inputs": [],
      "name": "deadline",
      "outputs": [
        {
          "internalType": "uint256",
          "name": "",
          "type": "uint256"
        }
      ],
      "stateMutability": "view",
      "type": "function"
    },
    {
      "inputs": [
        {
          "internalType": "uint256",
          "name": "_tokenId",
          "type": "uint256"
        }
      ],
      "name": "getApproved",
      "outputs": [
        {
          "internalType": "address",
          "name": "",
          "type": "address"
        }
      ],
      "stateMutability": "view",
      "type": "function"
    },
    {
      "inputs": [
        {
          "internalType": "address",
          "name": "addr",
          "type": "address"
        }
      ],
      "name": "getContribution",
      "outputs": [
        {
          "internalType": "uint256",
          "name": "",
          "type": "uint256"
        }
      ],
      "stateMutability": "view",
      "type": "function"
    },
    {
      "inputs": [
        {
          "internalType": "uint256",
          "name": "tokenId",
          "type": "uint256"
        }
      ],
      "name": "getTier",
      "outputs": [
        {
          "internalType": "uint8",
          "name": "",
          "type": "uint8"
        }
      ],
      "stateMutability": "pure",
      "type": "function"
    },
    {
      "inputs": [],
      "name": "goal",
      "outputs": [
        {
          "internalType": "uint256",
          "name": "",
          "type": "uint256"
        }
      ],
      "stateMutability": "view",
      "type": "function"
    },
    {
      "inputs": [],
      "name": "idCounter",
      "outputs": [
        {
          "internalType": "uint256",
          "name": "",
          "type": "uint256"
        }
      ],
      "stateMutability": "view",
      "type": "function"
    },
    {
      "inputs": [
        {
          "internalType": "address",
          "name": "_owner",
          "type": "address"
        },
        {
          "internalType": "address",
          "name": "_operator",
          "type": "address"
        }
      ],
      "name": "isApprovedForAll",
      "outputs": [
        {
          "internalType": "bool",
          "name": "",
          "type": "bool"
        }
      ],
      "stateMutability": "view",
      "type": "function"
    },
    {
      "inputs": [],
      "name": "minimumContribution",
      "outputs": [
        {
          "internalType": "uint256",
          "name": "",
          "type": "uint256"
        }
      ],
      "stateMutability": "view",
      "type": "function"
    },
    {
      "inputs": [
        {
          "internalType": "uint256",
          "name": "tokenId",
          "type": "uint256"
        }
      ],
      "name": "ownerOf",
      "outputs": [
        {
          "internalType": "address",
          "name": "",
          "type": "address"
        }
      ],
      "stateMutability": "view",
      "type": "function"
    },
    {
      "inputs": [],
      "name": "refund",
      "outputs": [],
      "stateMutability": "nonpayable",
      "type": "function"
    },
    {
      "inputs": [
        {
          "internalType": "address",
          "name": "_from",
          "type": "address"
        },
        {
          "internalType": "address",
          "name": "_to",
          "type": "address"
        },
        {
          "internalType": "uint256",
          "name": "_tokenId",
          "type": "uint256"
        }
      ],
      "name": "safeTransferFrom",
      "outputs": [],
      "stateMutability": "payable",
      "type": "function"
    },
    {
      "inputs": [
        {
          "internalType": "address",
          "name": "_from",
          "type": "address"
        },
        {
          "internalType": "address",
          "name": "_to",
          "type": "address"
        },
        {
          "internalType": "uint256",
          "name": "_tokenId",
          "type": "uint256"
        },
        {
          "internalType": "bytes",
          "name": "data",
          "type": "bytes"
        }
      ],
      "name": "safeTransferFrom",
      "outputs": [],
      "stateMutability": "payable",
      "type": "function"
    },
    {
      "inputs": [
        {
          "internalType": "address",
          "name": "_operator",
          "type": "address"
        },
        {
          "internalType": "bool",
          "name": "_approved",
          "type": "bool"
        }
      ],
      "name": "setApprovalForAll",
      "outputs": [],
      "stateMutability": "nonpayable",
      "type": "function"
    },
    {
      "inputs": [],
      "name": "status",
      "outputs": [
        {
          "internalType": "enum Project.Status",
          "name": "",
          "type": "uint8"
        }
      ],
      "stateMutability": "view",
      "type": "function"
    },
    {
      "inputs": [],
      "name": "title",
      "outputs": [
        {
          "internalType": "string",
          "name": "",
          "type": "string"
        }
      ],
      "stateMutability": "view",
      "type": "function"
    },
    {
      "inputs": [
        {
          "internalType": "address",
          "name": "_from",
          "type": "address"
        },
        {
          "internalType": "address",
          "name": "_to",
          "type": "address"
        },
        {
          "internalType": "uint256",
          "name": "_tokenId",
          "type": "uint256"
        }
      ],
      "name": "transferFrom",
      "outputs": [],
      "stateMutability": "payable",
      "type": "function"
    },
    {
      "inputs": [
        {
          "internalType": "uint256",
          "name": "percentage",
          "type": "uint256"
        }
      ],
      "name": "withdraw",
      "outputs": [],
      "stateMutability": "nonpayable",
      "type": "function"
    }
  ],
  "bytecode": "0x6080604052662386f26fc100006005553480156200001c57600080fd5b506040516200268c3803806200268c833981810160405281019062000042919062000228565b82600060016101000a81548173ffffffffffffffffffffffffffffffffffffffff021916908373ffffffffffffffffffffffffffffffffffffffff16021790555081600190805190602001906200009b929190620000d8565b50670de0b6b3a764000081620000b291906200035b565b60028190555062278d0042620000c99190620002fe565b60038190555050505062000527565b828054620000e69062000430565b90600052602060002090601f0160209004810192826200010a576000855562000156565b82601f106200012557805160ff191683800117855562000156565b8280016001018555821562000156579182015b828111156200015557825182559160200191906001019062000138565b5b50905062000165919062000169565b5090565b5b80821115620001845760008160009055506001016200016a565b5090565b60006200019f6200019984620002cb565b62000297565b905082815260208101848484011115620001b857600080fd5b620001c5848285620003fa565b509392505050565b600081519050620001de81620004f3565b92915050565b600082601f830112620001f657600080fd5b81516200020884826020860162000188565b91505092915050565b60008151905062000222816200050d565b92915050565b6000806000606084860312156200023e57600080fd5b60006200024e86828701620001cd565b935050602084015167ffffffffffffffff8111156200026c57600080fd5b6200027a86828701620001e4565b92505060406200028d8682870162000211565b9150509250925092565b6000604051905081810181811067ffffffffffffffff82111715620002c157620002c0620004c4565b5b8060405250919050565b600067ffffffffffffffff821115620002e957620002e8620004c4565b5b601f19601f8301169050602081019050919050565b60006200030b82620003f0565b91506200031883620003f0565b9250827fffffffffffffffffffffffffffffffffffffffffffffffffffffffffffffffff0382111562000350576200034f62000466565b5b828201905092915050565b60006200036882620003f0565b91506200037583620003f0565b9250817fffffffffffffffffffffffffffffffffffffffffffffffffffffffffffffffff0483118215151615620003b157620003b062000466565b5b828202905092915050565b6000620003c982620003d0565b9050919050565b600073ffffffffffffffffffffffffffffffffffffffff82169050919050565b6000819050919050565b60005b838110156200041a578082015181840152602081019050620003fd565b838111156200042a576000848401525b50505050565b600060028204905060018216806200044957607f821691505b6020821081141562000460576200045f62000495565b5b50919050565b7f4e487b7100000000000000000000000000000000000000000000000000000000600052601160045260246000fd5b7f4e487b7100000000000000000000000000000000000000000000000000000000600052602260045260246000fd5b7f4e487b7100000000000000000000000000000000000000000000000000000000600052604160045260246000fd5b620004fe81620003bc565b81146200050a57600080fd5b50565b6200051881620003f0565b81146200052457600080fd5b50565b61215580620005376000396000f3fe6080604052600436106101355760003560e01c80634f062c5a116100ab578063a22cb4651161006f578063a22cb46514610401578063b88d4fde1461042a578063d7bb99ba14610446578063e985e9c514610450578063ea8a1af01461048d578063eb08ab28146104a457610135565b80634f062c5a14610308578063590e1ae3146103455780636352211e1461035c57806370a0823114610399578063937e09b1146103d657610135565b806323b872dd116100fd57806323b872dd1461022657806329dcb0cf146102425780632e1a7d4d1461026d578063401938831461029657806342842e0e146102c15780634a79d50c146102dd57610135565b806302d05d3f1461013a578063081812fc14610165578063095ea7b3146101a2578063200d2ed2146101be57806321eff7fc146101e9575b600080fd5b34801561014657600080fd5b5061014f6104cf565b60405161015c9190611b0b565b60405180910390f35b34801561017157600080fd5b5061018c6004803603810190610187919061175f565b6104f5565b6040516101999190611af0565b60405180910390f35b6101bc60048036038101906101b79190611723565b6104fc565b005b3480156101ca57600080fd5b506101d3610501565b6040516101e09190611b78565b60405180910390f35b3480156101f557600080fd5b50610210600480360381019061020b91906115b8565b610512565b60405161021d9190611ce5565b60405180910390f35b610240600480360381019061023b919061161d565b61055b565b005b34801561024e57600080fd5b50610257610560565b6040516102649190611ce5565b60405180910390f35b34801561027957600080fd5b50610294600480360381019061028f919061175f565b610566565b005b3480156102a257600080fd5b506102ab6107a6565b6040516102b89190611ce5565b60405180910390f35b6102db60048036038101906102d6919061161d565b6107ac565b005b3480156102e957600080fd5b506102f26107b1565b6040516102ff9190611b93565b60405180910390f35b34801561031457600080fd5b5061032f600480360381019061032a919061175f565b61083f565b60405161033c9190611d00565b60405180910390f35b34801561035157600080fd5b5061035a61085a565b005b34801561036857600080fd5b50610383600480360381019061037e919061175f565b610bc9565b6040516103909190611af0565b60405180910390f35b3480156103a557600080fd5b506103c060048036038101906103bb91906115b8565b610cae565b6040516103cd9190611ce5565b60405180910390f35b3480156103e257600080fd5b506103eb610cf7565b6040516103f89190611ce5565b60405180910390f35b34801561040d57600080fd5b50610428600480360381019061042391906116e7565b610cfd565b005b610444600480360381019061043f919061166c565b610d02565b005b61044e610d07565b005b34801561045c57600080fd5b50610477600480360381019061047291906115e1565b61112d565b6040516104849190611b5d565b60405180910390f35b34801561049957600080fd5b506104a2611134565b005b3480156104b057600080fd5b506104b9611312565b6040516104c69190611ce5565b60405180910390f35b600060019054906101000a900473ffffffffffffffffffffffffffffffffffffffff1681565b6000806000fd5b600080fd5b60008054906101000a900460ff1681565b6000600660008373ffffffffffffffffffffffffffffffffffffffff1673ffffffffffffffffffffffffffffffffffffffff168152602001908152602001600020549050919050565b600080fd5b60035481565b600060019054906101000a900473ffffffffffffffffffffffffffffffffffffffff1673ffffffffffffffffffffffffffffffffffffffff163373ffffffffffffffffffffffffffffffffffffffff16146105f6576040517f08c379a00000000000000000000000000000000000000000000000000000000081526004016105ed90611c45565b60405180910390fd5b6001806002811115610631577f4e487b7100000000000000000000000000000000000000000000000000000000600052602160045260246000fd5b60008054906101000a900460ff166002811115610677577f4e487b7100000000000000000000000000000000000000000000000000000000600052602160045260246000fd5b146106b7576040517f08c379a00000000000000000000000000000000000000000000000000000000081526004016106ae90611cc5565b60405180910390fd5b6000826064476106c79190611e0e565b6106d19190611e3f565b905060008060019054906101000a900473ffffffffffffffffffffffffffffffffffffffff1673ffffffffffffffffffffffffffffffffffffffff168260405161071a90611adb565b60006040518083038185875af1925050503d8060008114610757576040519150601f19603f3d011682016040523d82523d6000602084013e61075c565b606091505b50509050806107a0576040517f08c379a000000000000000000000000000000000000000000000000000000000815260040161079790611c25565b60405180910390fd5b50505050565b60025481565b600080fd5b600180546107be90611f67565b80601f01602080910402602001604051908101604052809291908181526020018280546107ea90611f67565b80156108375780601f1061080c57610100808354040283529160200191610837565b820191906000526020600020905b81548152906001019060200180831161081a57829003601f168201915b505050505081565b60008060048361084f9190611f99565b905080915050919050565b600280811115610893577f4e487b7100000000000000000000000000000000000000000000000000000000600052602160045260246000fd5b60008054906101000a900460ff1660028111156108d9577f4e487b7100000000000000000000000000000000000000000000000000000000600052602160045260246000fd5b141580156108e957506003544210155b80156108f6575060025447105b1561094c5760026000806101000a81548160ff02191690836002811115610946577f4e487b7100000000000000000000000000000000000000000000000000000000600052602160045260246000fd5b02179055505b6002806002811115610987577f4e487b7100000000000000000000000000000000000000000000000000000000600052602160045260246000fd5b60008054906101000a900460ff1660028111156109cd577f4e487b7100000000000000000000000000000000000000000000000000000000600052602160045260246000fd5b14610a0d576040517f08c379a0000000000000000000000000000000000000000000000000000000008152600401610a0490611cc5565b60405180910390fd5b6000600660003373ffffffffffffffffffffffffffffffffffffffff1673ffffffffffffffffffffffffffffffffffffffff1681526020019081526020016000205411610a8f576040517f08c379a0000000000000000000000000000000000000000000000000000000008152600401610a8690611c85565b60405180910390fd5b6000600660003373ffffffffffffffffffffffffffffffffffffffff1673ffffffffffffffffffffffffffffffffffffffff1681526020019081526020016000205490506000600660003373ffffffffffffffffffffffffffffffffffffffff1673ffffffffffffffffffffffffffffffffffffffff1681526020019081526020016000208190555060003373ffffffffffffffffffffffffffffffffffffffff1682604051610b3e90611adb565b60006040518083038185875af1925050503d8060008114610b7b576040519150601f19603f3d011682016040523d82523d6000602084013e610b80565b606091505b5050905080610bc4576040517f08c379a0000000000000000000000000000000000000000000000000000000008152600401610bbb90611ca5565b60405180910390fd5b505050565b6000806007600084815260200190815260200160002060009054906101000a900473ffffffffffffffffffffffffffffffffffffffff169050600073ffffffffffffffffffffffffffffffffffffffff168173ffffffffffffffffffffffffffffffffffffffff161415610c72576040517f08c379a0000000000000000000000000000000000000000000000000000000008152600401610c6990611c65565b60405180910390fd5b6007600084815260200190815260200160002060009054906101000a900473ffffffffffffffffffffffffffffffffffffffff16915050919050565b6000600860008373ffffffffffffffffffffffffffffffffffffffff1673ffffffffffffffffffffffffffffffffffffffff168152602001908152602001600020549050919050565b60055481565b600080fd5b600080fd5b600280811115610d40577f4e487b7100000000000000000000000000000000000000000000000000000000600052602160045260246000fd5b60008054906101000a900460ff166002811115610d86577f4e487b7100000000000000000000000000000000000000000000000000000000600052602160045260246000fd5b14158015610d9657506003544210155b8015610da3575060025447105b15610df95760026000806101000a81548160ff02191690836002811115610df3577f4e487b7100000000000000000000000000000000000000000000000000000000600052602160045260246000fd5b02179055505b6000806002811115610e34577f4e487b7100000000000000000000000000000000000000000000000000000000600052602160045260246000fd5b60008054906101000a900460ff166002811115610e7a577f4e487b7100000000000000000000000000000000000000000000000000000000600052602160045260246000fd5b14610eba576040517f08c379a0000000000000000000000000000000000000000000000000000000008152600401610eb190611cc5565b60405180910390fd5b600554341015610eff576040517f08c379a0000000000000000000000000000000000000000000000000000000008152600401610ef690611be5565b60405180910390fd5b670de0b6b3a76400003410158015610f5d5750670de0b6b3a7640000600660003373ffffffffffffffffffffffffffffffffffffffff1673ffffffffffffffffffffffffffffffffffffffff16815260200190815260200160002054105b15610f7257610f6d600133611318565b611040565b6703782dace9d900003410158015610fd057506703782dace9d90000600660003373ffffffffffffffffffffffffffffffffffffffff1673ffffffffffffffffffffffffffffffffffffffff16815260200190815260200160002054105b15610fe557610fe0600233611318565b61103f565b6000600660003373ffffffffffffffffffffffffffffffffffffffff1673ffffffffffffffffffffffffffffffffffffffff16815260200190815260200160002054141561103d57611038600333611318565b61103e565b5b5b5b34600660003373ffffffffffffffffffffffffffffffffffffffff1673ffffffffffffffffffffffffffffffffffffffff168152602001908152602001600020600082825461108f9190611db8565b92505081905550600254471061112a5760016000806101000a81548160ff021916908360028111156110ea577f4e487b7100000000000000000000000000000000000000000000000000000000600052602160045260246000fd5b02179055507f52515b9d2bdf95791ce080db9c6106fc2cd6aa00cc7eebcefd9d0c05379b4105600130604051611121929190611bb5565b60405180910390a15b50565b6000806000fd5b600060019054906101000a900473ffffffffffffffffffffffffffffffffffffffff1673ffffffffffffffffffffffffffffffffffffffff163373ffffffffffffffffffffffffffffffffffffffff16146111c4576040517f08c379a00000000000000000000000000000000000000000000000000000000081526004016111bb90611c45565b60405180910390fd5b60008060028111156111ff577f4e487b7100000000000000000000000000000000000000000000000000000000600052602160045260246000fd5b60008054906101000a900460ff166002811115611245577f4e487b7100000000000000000000000000000000000000000000000000000000600052602160045260246000fd5b14611285576040517f08c379a000000000000000000000000000000000000000000000000000000000815260040161127c90611cc5565b60405180910390fd5b60026000806101000a81548160ff021916908360028111156112d0577f4e487b7100000000000000000000000000000000000000000000000000000000600052602160045260246000fd5b02179055507fe34d4cb67cc60d1b99027998c8a7e52ae5690a3f9fd1219d8c586b6d61b4770d600130604051611307929190611bb5565b60405180910390a150565b60045481565b600073ffffffffffffffffffffffffffffffffffffffff168173ffffffffffffffffffffffffffffffffffffffff16141561135257600080fd5b60008260ff166002600454901b6113699190611db8565b905060016004600082825461137e9190611db8565b92505081905550600073ffffffffffffffffffffffffffffffffffffffff166007600083815260200190815260200160002060009054906101000a900473ffffffffffffffffffffffffffffffffffffffff1673ffffffffffffffffffffffffffffffffffffffff1614611427576040517f08c379a000000000000000000000000000000000000000000000000000000000815260040161141e90611c05565b60405180910390fd5b816007600083815260200190815260200160002060006101000a81548173ffffffffffffffffffffffffffffffffffffffff021916908373ffffffffffffffffffffffffffffffffffffffff1602179055506001600860008473ffffffffffffffffffffffffffffffffffffffff1673ffffffffffffffffffffffffffffffffffffffff16815260200190815260200160002060008282546114c99190611db8565b925050819055507fddf252ad1be2c89b69c2b068fc378daa952ba7f163c4a11628f55a4df523b3ef6000838360405161150493929190611b26565b60405180910390a1505050565b600061152461151f84611d4c565b611d1b565b90508281526020810184848401111561153c57600080fd5b611547848285611f25565b509392505050565b60008135905061155e816120da565b92915050565b600081359050611573816120f1565b92915050565b600082601f83011261158a57600080fd5b813561159a848260208601611511565b91505092915050565b6000813590506115b281612108565b92915050565b6000602082840312156115ca57600080fd5b60006115d88482850161154f565b91505092915050565b600080604083850312156115f457600080fd5b60006116028582860161154f565b92505060206116138582860161154f565b9150509250929050565b60008060006060848603121561163257600080fd5b60006116408682870161154f565b93505060206116518682870161154f565b9250506040611662868287016115a3565b9150509250925092565b6000806000806080858703121561168257600080fd5b60006116908782880161154f565b94505060206116a18782880161154f565b93505060406116b2878288016115a3565b925050606085013567ffffffffffffffff8111156116cf57600080fd5b6116db87828801611579565b91505092959194509250565b600080604083850312156116fa57600080fd5b60006117088582860161154f565b925050602061171985828601611564565b9150509250929050565b6000806040838503121561173657600080fd5b60006117448582860161154f565b9250506020611755858286016115a3565b9150509250929050565b60006020828403121561177157600080fd5b600061177f848285016115a3565b91505092915050565b61179181611eab565b82525050565b6117a081611e99565b82525050565b6117af81611ebd565b82525050565b6117be81611f13565b82525050565b60006117cf82611d91565b6117d98185611da7565b93506117e9818560208601611f34565b6117f2816120b5565b840191505092915050565b6000815461180a81611f67565b6118148186611da7565b9450600182166000811461182f576001811461184157611874565b60ff1983168652602086019350611874565b61184a85611d7c565b60005b8381101561186c5781548189015260018201915060208101905061184d565b808801955050505b50505092915050565b600061188a602283611da7565b91507f4e65656420746f206d616b652061206c617267657220636f6e7472696275746960008301527f6f6e0000000000000000000000000000000000000000000000000000000000006020830152604082019050919050565b60006118f0602083611da7565b91507f494420616c7265616479206f776e656420627920736f6d656f6e6520656c73656000830152602082019050919050565b6000611930601483611da7565b91507f4661696c656420746f2073656e642045746865720000000000000000000000006000830152602082019050919050565b6000611970600b83611da7565b91507f4e6f742063726561746f720000000000000000000000000000000000000000006000830152602082019050919050565b60006119b0601483611da7565b91507f546f6b656e206973206e6f6e6578697374656e740000000000000000000000006000830152602082019050919050565b60006119f0601283611da7565b91507f646964206e6f7420636f6e7472696275746500000000000000000000000000006000830152602082019050919050565b6000611a30600083611d9c565b9150600082019050919050565b6000611a4a601583611da7565b91507f4661696c656420746f2073656e6420726566756e6400000000000000000000006000830152602082019050919050565b6000611a8a601e83611da7565b91507f43616e6e6f742062652063616c6c656420617420746869732074696d652e00006000830152602082019050919050565b611ac681611efc565b82525050565b611ad581611f06565b82525050565b6000611ae682611a23565b9150819050919050565b6000602082019050611b056000830184611797565b92915050565b6000602082019050611b206000830184611788565b92915050565b6000606082019050611b3b6000830186611797565b611b486020830185611797565b611b556040830184611abd565b949350505050565b6000602082019050611b7260008301846117a6565b92915050565b6000602082019050611b8d60008301846117b5565b92915050565b60006020820190508181036000830152611bad81846117c4565b905092915050565b60006040820190508181036000830152611bcf81856117fd565b9050611bde6020830184611797565b9392505050565b60006020820190508181036000830152611bfe8161187d565b9050919050565b60006020820190508181036000830152611c1e816118e3565b9050919050565b60006020820190508181036000830152611c3e81611923565b9050919050565b60006020820190508181036000830152611c5e81611963565b9050919050565b60006020820190508181036000830152611c7e816119a3565b9050919050565b60006020820190508181036000830152611c9e816119e3565b9050919050565b60006020820190508181036000830152611cbe81611a3d565b9050919050565b60006020820190508181036000830152611cde81611a7d565b9050919050565b6000602082019050611cfa6000830184611abd565b92915050565b6000602082019050611d156000830184611acc565b92915050565b6000604051905081810181811067ffffffffffffffff82111715611d4257611d41612086565b5b8060405250919050565b600067ffffffffffffffff821115611d6757611d66612086565b5b601f19601f8301169050602081019050919050565b60008190508160005260206000209050919050565b600081519050919050565b600081905092915050565b600082825260208201905092915050565b6000611dc382611efc565b9150611dce83611efc565b9250827fffffffffffffffffffffffffffffffffffffffffffffffffffffffffffffffff03821115611e0357611e02611fca565b5b828201905092915050565b6000611e1982611efc565b9150611e2483611efc565b925082611e3457611e33611ff9565b5b828204905092915050565b6000611e4a82611efc565b9150611e5583611efc565b9250817fffffffffffffffffffffffffffffffffffffffffffffffffffffffffffffffff0483118215151615611e8e57611e8d611fca565b5b828202905092915050565b6000611ea482611edc565b9050919050565b6000611eb682611edc565b9050919050565b60008115159050919050565b6000819050611ed7826120c6565b919050565b600073ffffffffffffffffffffffffffffffffffffffff82169050919050565b6000819050919050565b600060ff82169050919050565b6000611f1e82611ec9565b9050919050565b82818337600083830152505050565b60005b83811015611f52578082015181840152602081019050611f37565b83811115611f61576000848401525b50505050565b60006002820490506001821680611f7f57607f821691505b60208210811415611f9357611f92612057565b5b50919050565b6000611fa482611f06565b9150611faf83611f06565b925082611fbf57611fbe611ff9565b5b828206905092915050565b7f4e487b7100000000000000000000000000000000000000000000000000000000600052601160045260246000fd5b7f4e487b7100000000000000000000000000000000000000000000000000000000600052601260045260246000fd5b7f4e487b7100000000000000000000000000000000000000000000000000000000600052602160045260246000fd5b7f4e487b7100000000000000000000000000000000000000000000000000000000600052602260045260246000fd5b7f4e487b7100000000000000000000000000000000000000000000000000000000600052604160045260246000fd5b6000601f19601f8301169050919050565b600381106120d7576120d6612028565b5b50565b6120e381611e99565b81146120ee57600080fd5b50565b6120fa81611ebd565b811461210557600080fd5b50565b61211181611efc565b811461211c57600080fd5b5056fea26469706673582212201a3caed268e55a32551d3864b2d47ba5cc640e2c3e14a8d5945f1d5a01d6146464736f6c63430008000033",
  "linkReferences": {},
  "deployedLinkReferences": {}
}